{
  "contractName": "TrustedDataMule",
  "abi": [
    {
      "anonymous": false,
      "inputs": [
        {
          "indexed": true,
          "internalType": "string",
          "name": "recipientId",
          "type": "string"
        },
        {
          "indexed": false,
          "internalType": "string",
          "name": "ip_address",
          "type": "string"
        },
        {
          "indexed": false,
          "internalType": "string",
          "name": "port",
          "type": "string"
        },
        {
          "indexed": false,
          "internalType": "bytes32",
          "name": "_ethSignedMessageHash",
          "type": "bytes32"
        }
      ],
      "name": "MessageSent",
      "type": "event"
    },
    {
      "anonymous": false,
      "inputs": [
        {
          "indexed": true,
          "internalType": "address",
          "name": "signer",
          "type": "address"
        },
        {
          "indexed": false,
          "internalType": "string",
          "name": "publicKey",
          "type": "string"
        }
      ],
      "name": "SignatureVerified",
      "type": "event"
    },
    {
      "inputs": [
        {
          "internalType": "address",
          "name": "",
          "type": "address"
        }
      ],
      "name": "dataMules",
      "outputs": [
        {
          "internalType": "bool",
          "name": "isRegistered",
          "type": "bool"
        },
        {
          "internalType": "uint256",
          "name": "accumulatedTokens",
          "type": "uint256"
        }
      ],
      "stateMutability": "view",
      "type": "function",
      "constant": true
    },
    {
      "inputs": [
        {
          "internalType": "bytes32",
          "name": "",
          "type": "bytes32"
        }
      ],
      "name": "recipientDetails",
      "outputs": [
        {
          "internalType": "bool",
          "name": "isRegistered",
          "type": "bool"
        },
        {
          "internalType": "string",
          "name": "id_d",
          "type": "string"
        },
        {
          "internalType": "string",
          "name": "port",
          "type": "string"
        },
        {
          "internalType": "string",
          "name": "ip_address",
          "type": "string"
        }
      ],
      "stateMutability": "view",
      "type": "function",
      "constant": true
    },
    {
      "inputs": [
        {
          "internalType": "address",
          "name": "",
          "type": "address"
        }
      ],
      "name": "usersByAddress",
      "outputs": [
        {
          "internalType": "bool",
          "name": "isRegistered",
          "type": "bool"
        },
        {
          "internalType": "string",
          "name": "publicKey",
          "type": "string"
        }
      ],
      "stateMutability": "view",
      "type": "function",
      "constant": true
    },
    {
      "inputs": [
        {
          "internalType": "address",
          "name": "publicAddress",
          "type": "address"
        },
        {
          "internalType": "string",
          "name": "publicKey",
          "type": "string"
        }
      ],
      "name": "registerUser",
      "outputs": [],
      "stateMutability": "nonpayable",
      "type": "function"
    },
    {
      "inputs": [
        {
          "internalType": "string",
          "name": "id_d",
          "type": "string"
        },
        {
          "internalType": "string",
          "name": "port",
          "type": "string"
        },
        {
          "internalType": "string",
          "name": "ip_address",
          "type": "string"
        }
      ],
      "name": "registerRecipient",
      "outputs": [],
      "stateMutability": "nonpayable",
      "type": "function"
    },
    {
      "inputs": [],
      "name": "registerDataMule",
      "outputs": [],
      "stateMutability": "nonpayable",
      "type": "function"
    },
    {
      "inputs": [
        {
          "internalType": "bytes32",
          "name": "_ethSignedMessageHash",
          "type": "bytes32"
        },
        {
          "internalType": "bytes",
          "name": "_signature",
          "type": "bytes"
        }
      ],
      "name": "forwardMessage",
      "outputs": [],
      "stateMutability": "nonpayable",
      "type": "function"
    },
    {
      "inputs": [
        {
          "internalType": "bytes",
          "name": "sig",
          "type": "bytes"
        }
      ],
      "name": "splitSignature",
      "outputs": [
        {
          "internalType": "bytes32",
          "name": "r",
          "type": "bytes32"
        },
        {
          "internalType": "bytes32",
          "name": "s",
          "type": "bytes32"
        },
        {
          "internalType": "uint8",
          "name": "v",
          "type": "uint8"
        }
      ],
      "stateMutability": "pure",
      "type": "function",
      "constant": true
    },
    {
      "inputs": [
        {
          "internalType": "address",
          "name": "signer",
          "type": "address"
        }
      ],
      "name": "getPublicKeyForSigner",
      "outputs": [
        {
          "internalType": "string",
          "name": "",
          "type": "string"
        }
      ],
      "stateMutability": "view",
      "type": "function",
      "constant": true
    },
    {
      "inputs": [
        {
          "internalType": "bytes32",
          "name": "_ethSignedMessageHash",
          "type": "bytes32"
        },
        {
          "internalType": "string",
          "name": "recipientId",
          "type": "string"
        }
      ],
      "name": "sendMessage",
      "outputs": [
        {
          "internalType": "string",
          "name": "ip_address",
          "type": "string"
        },
        {
          "internalType": "string",
          "name": "port",
          "type": "string"
        }
      ],
      "stateMutability": "view",
      "type": "function",
      "constant": true
    }
  ],
  "bytecode": "0x608060405234801561000f575f80fd5b50611b438061001d5f395ff3fe608060405234801561000f575f80fd5b506004361061009c575f3560e01c80636fb0534c116100645780636fb0534c14610143578063703c99d614610176578063a7bb5803146101a7578063d8c1e59d146101d9578063e7df69b1146101f55761009c565b8063016ca209146100a05780630ea126f9146100bc5780635423cc1b146100d85780636bf693c4146100e25780636caf753414610113575b5f80fd5b6100ba60048036038101906100b59190610ecc565b610226565b005b6100d660048036038101906100d19190610fca565b61034d565b005b6100e0610466565b005b6100fc60048036038101906100f79190611024565b61054b565b60405161010a9291906110e3565b60405180910390f35b61012d60048036038101906101289190611024565b6105fc565b60405161013a9190611111565b60405180910390f35b61015d60048036038101906101589190611164565b610755565b60405161016d949392919061118f565b60405180910390f35b610190600480360381019061018b9190611024565b61091f565b60405161019e9291906111ff565b60405180910390f35b6101c160048036038101906101bc91906112c4565b61094b565b6040516101d093929190611335565b60405180910390f35b6101f360048036038101906101ee919061136a565b6109b0565b005b61020f600480360381019061020a91906113c4565b610ba7565b60405161021d92919061141e565b60405180910390f35b5f83604051602001610238919061148d565b60405160208183030381529060405280519060200120905060015f8281526020019081526020015f205f015f9054906101000a900460ff16156102b0576040517f08c379a00000000000000000000000000000000000000000000000000000000081526004016102a7906114ed565b60405180910390fd5b60405180608001604052806001151581526020018581526020018481526020018381525060015f8381526020019081526020015f205f820151815f015f6101000a81548160ff02191690831515021790555060208201518160010190816103179190611705565b50604082015181600201908161032d9190611705565b5060608201518160030190816103439190611705565b5090505050505050565b5f808373ffffffffffffffffffffffffffffffffffffffff1673ffffffffffffffffffffffffffffffffffffffff1681526020019081526020015f205f015f9054906101000a900460ff16156103d8576040517f08c379a00000000000000000000000000000000000000000000000000000000081526004016103cf9061181e565b60405180910390fd5b6040518060400160405280600115158152602001828152505f808473ffffffffffffffffffffffffffffffffffffffff1673ffffffffffffffffffffffffffffffffffffffff1681526020019081526020015f205f820151815f015f6101000a81548160ff021916908315150217905550602082015181600101908161045e9190611705565b509050505050565b60025f3373ffffffffffffffffffffffffffffffffffffffff1673ffffffffffffffffffffffffffffffffffffffff1681526020019081526020015f205f015f9054906101000a900460ff16156104f2576040517f08c379a00000000000000000000000000000000000000000000000000000000081526004016104e990611886565b60405180910390fd5b600160025f3373ffffffffffffffffffffffffffffffffffffffff1673ffffffffffffffffffffffffffffffffffffffff1681526020019081526020015f205f015f6101000a81548160ff021916908315150217905550565b5f602052805f5260405f205f91509050805f015f9054906101000a900460ff169080600101805461057b90611538565b80601f01602080910402602001604051908101604052809291908181526020018280546105a790611538565b80156105f25780601f106105c9576101008083540402835291602001916105f2565b820191905f5260205f20905b8154815290600101906020018083116105d557829003601f168201915b5050505050905082565b60605f808373ffffffffffffffffffffffffffffffffffffffff1673ffffffffffffffffffffffffffffffffffffffff1681526020019081526020015f205f015f9054906101000a900460ff16610688576040517f08c379a000000000000000000000000000000000000000000000000000000000815260040161067f906118ee565b60405180910390fd5b5f808373ffffffffffffffffffffffffffffffffffffffff1673ffffffffffffffffffffffffffffffffffffffff1681526020019081526020015f2060010180546106d290611538565b80601f01602080910402602001604051908101604052809291908181526020018280546106fe90611538565b80156107495780601f1061072057610100808354040283529160200191610749565b820191905f5260205f20905b81548152906001019060200180831161072c57829003601f168201915b50505050509050919050565b6001602052805f5260405f205f91509050805f015f9054906101000a900460ff169080600101805461078690611538565b80601f01602080910402602001604051908101604052809291908181526020018280546107b290611538565b80156107fd5780601f106107d4576101008083540402835291602001916107fd565b820191905f5260205f20905b8154815290600101906020018083116107e057829003601f168201915b50505050509080600201805461081290611538565b80601f016020809104026020016040519081016040528092919081815260200182805461083e90611538565b80156108895780601f1061086057610100808354040283529160200191610889565b820191905f5260205f20905b81548152906001019060200180831161086c57829003601f168201915b50505050509080600301805461089e90611538565b80601f01602080910402602001604051908101604052809291908181526020018280546108ca90611538565b80156109155780601f106108ec57610100808354040283529160200191610915565b820191905f5260205f20905b8154815290600101906020018083116108f857829003601f168201915b5050505050905084565b6002602052805f5260405f205f91509050805f015f9054906101000a900460ff16908060010154905082565b5f805f6041845114610992576040517f08c379a000000000000000000000000000000000000000000000000000000000815260040161098990611956565b60405180910390fd5b602084015192506040840151915060608401515f1a90509193909250565b60025f3373ffffffffffffffffffffffffffffffffffffffff1673ffffffffffffffffffffffffffffffffffffffff1681526020019081526020015f205f015f9054906101000a900460ff16610a3b576040517f08c379a0000000000000000000000000000000000000000000000000000000008152600401610a32906119e4565b60405180910390fd5b5f805f610a478461094b565b9250925092505f6001868386866040515f8152602001604052604051610a709493929190611a02565b6020604051602081039080840390855afa158015610a90573d5f803e3d5ffd5b5050506020604051035190505f610aa6826105fc565b90508173ffffffffffffffffffffffffffffffffffffffff167f0759bb2910308fa0ad6f107646284d25a51ef4c6691542b7189e18453f8689e982604051610aee9190611111565b60405180910390a25f808373ffffffffffffffffffffffffffffffffffffffff1673ffffffffffffffffffffffffffffffffffffffff1681526020019081526020015f205f015f9054906101000a900460ff1615610b9e57600160025f3373ffffffffffffffffffffffffffffffffffffffff1673ffffffffffffffffffffffffffffffffffffffff1681526020019081526020015f206001015f828254610b969190611a72565b925050819055505b50505050505050565b6060805f83604051602001610bbc919061148d565b60405160208183030381529060405280519060200120905060015f8281526020019081526020015f205f015f9054906101000a900460ff16610c33576040517f08c379a0000000000000000000000000000000000000000000000000000000008152600401610c2a90611aef565b60405180910390fd5b5f60015f8381526020019081526020015f206003018054610c5390611538565b80601f0160208091040260200160405190810160405280929190818152602001828054610c7f90611538565b8015610cca5780601f10610ca157610100808354040283529160200191610cca565b820191905f5260205f20905b815481529060010190602001808311610cad57829003601f168201915b505050505090505f60015f8481526020019081526020015f206002018054610cf190611538565b80601f0160208091040260200160405190810160405280929190818152602001828054610d1d90611538565b8015610d685780601f10610d3f57610100808354040283529160200191610d68565b820191905f5260205f20905b815481529060010190602001808311610d4b57829003601f168201915b505050505090508181945094505050509250929050565b5f604051905090565b5f80fd5b5f80fd5b5f80fd5b5f80fd5b5f601f19601f8301169050919050565b7f4e487b71000000000000000000000000000000000000000000000000000000005f52604160045260245ffd5b610dde82610d98565b810181811067ffffffffffffffff82111715610dfd57610dfc610da8565b5b80604052505050565b5f610e0f610d7f565b9050610e1b8282610dd5565b919050565b5f67ffffffffffffffff821115610e3a57610e39610da8565b5b610e4382610d98565b9050602081019050919050565b828183375f83830152505050565b5f610e70610e6b84610e20565b610e06565b905082815260208101848484011115610e8c57610e8b610d94565b5b610e97848285610e50565b509392505050565b5f82601f830112610eb357610eb2610d90565b5b8135610ec3848260208601610e5e565b91505092915050565b5f805f60608486031215610ee357610ee2610d88565b5b5f84013567ffffffffffffffff811115610f0057610eff610d8c565b5b610f0c86828701610e9f565b935050602084013567ffffffffffffffff811115610f2d57610f2c610d8c565b5b610f3986828701610e9f565b925050604084013567ffffffffffffffff811115610f5a57610f59610d8c565b5b610f6686828701610e9f565b9150509250925092565b5f73ffffffffffffffffffffffffffffffffffffffff82169050919050565b5f610f9982610f70565b9050919050565b610fa981610f8f565b8114610fb3575f80fd5b50565b5f81359050610fc481610fa0565b92915050565b5f8060408385031215610fe057610fdf610d88565b5b5f610fed85828601610fb6565b925050602083013567ffffffffffffffff81111561100e5761100d610d8c565b5b61101a85828601610e9f565b9150509250929050565b5f6020828403121561103957611038610d88565b5b5f61104684828501610fb6565b91505092915050565b5f8115159050919050565b6110638161104f565b82525050565b5f81519050919050565b5f82825260208201905092915050565b5f5b838110156110a0578082015181840152602081019050611085565b5f8484015250505050565b5f6110b582611069565b6110bf8185611073565b93506110cf818560208601611083565b6110d881610d98565b840191505092915050565b5f6040820190506110f65f83018561105a565b818103602083015261110881846110ab565b90509392505050565b5f6020820190508181035f83015261112981846110ab565b905092915050565b5f819050919050565b61114381611131565b811461114d575f80fd5b50565b5f8135905061115e8161113a565b92915050565b5f6020828403121561117957611178610d88565b5b5f61118684828501611150565b91505092915050565b5f6080820190506111a25f83018761105a565b81810360208301526111b481866110ab565b905081810360408301526111c881856110ab565b905081810360608301526111dc81846110ab565b905095945050505050565b5f819050919050565b6111f9816111e7565b82525050565b5f6040820190506112125f83018561105a565b61121f60208301846111f0565b9392505050565b5f67ffffffffffffffff8211156112405761123f610da8565b5b61124982610d98565b9050602081019050919050565b5f61126861126384611226565b610e06565b90508281526020810184848401111561128457611283610d94565b5b61128f848285610e50565b509392505050565b5f82601f8301126112ab576112aa610d90565b5b81356112bb848260208601611256565b91505092915050565b5f602082840312156112d9576112d8610d88565b5b5f82013567ffffffffffffffff8111156112f6576112f5610d8c565b5b61130284828501611297565b91505092915050565b61131481611131565b82525050565b5f60ff82169050919050565b61132f8161131a565b82525050565b5f6060820190506113485f83018661130b565b611355602083018561130b565b6113626040830184611326565b949350505050565b5f80604083850312156113805761137f610d88565b5b5f61138d85828601611150565b925050602083013567ffffffffffffffff8111156113ae576113ad610d8c565b5b6113ba85828601611297565b9150509250929050565b5f80604083850312156113da576113d9610d88565b5b5f6113e785828601611150565b925050602083013567ffffffffffffffff81111561140857611407610d8c565b5b61141485828601610e9f565b9150509250929050565b5f6040820190508181035f83015261143681856110ab565b9050818103602083015261144a81846110ab565b90509392505050565b5f81905092915050565b5f61146782611069565b6114718185611453565b9350611481818560208601611083565b80840191505092915050565b5f611498828461145d565b915081905092915050565b7f526563697069656e7420616c72656164792072656769737465726564000000005f82015250565b5f6114d7601c83611073565b91506114e2826114a3565b602082019050919050565b5f6020820190508181035f830152611504816114cb565b9050919050565b7f4e487b71000000000000000000000000000000000000000000000000000000005f52602260045260245ffd5b5f600282049050600182168061154f57607f821691505b6020821081036115625761156161150b565b5b50919050565b5f819050815f5260205f209050919050565b5f6020601f8301049050919050565b5f82821b905092915050565b5f600883026115c47fffffffffffffffffffffffffffffffffffffffffffffffffffffffffffffffff82611589565b6115ce8683611589565b95508019841693508086168417925050509392505050565b5f819050919050565b5f6116096116046115ff846111e7565b6115e6565b6111e7565b9050919050565b5f819050919050565b611622836115ef565b61163661162e82611610565b848454611595565b825550505050565b5f90565b61164a61163e565b611655818484611619565b505050565b5b818110156116785761166d5f82611642565b60018101905061165b565b5050565b601f8211156116bd5761168e81611568565b6116978461157a565b810160208510156116a6578190505b6116ba6116b28561157a565b83018261165a565b50505b505050565b5f82821c905092915050565b5f6116dd5f19846008026116c2565b1980831691505092915050565b5f6116f583836116ce565b9150826002028217905092915050565b61170e82611069565b67ffffffffffffffff81111561172757611726610da8565b5b6117318254611538565b61173c82828561167c565b5f60209050601f83116001811461176d575f841561175b578287015190505b61176585826116ea565b8655506117cc565b601f19841661177b86611568565b5f5b828110156117a25784890151825560018201915060208501945060208101905061177d565b868310156117bf57848901516117bb601f8916826116ce565b8355505b6001600288020188555050505b505050505050565b7f5573657220616c726561647920726567697374657265640000000000000000005f82015250565b5f611808601783611073565b9150611813826117d4565b602082019050919050565b5f6020820190508181035f830152611835816117fc565b9050919050565b7f446174614d756c6520616c7265616479207265676973746572656400000000005f82015250565b5f611870601b83611073565b915061187b8261183c565b602082019050919050565b5f6020820190508181035f83015261189d81611864565b9050919050565b7f5369676e6572206973206e6f74206120726567697374657265642075736572005f82015250565b5f6118d8601f83611073565b91506118e3826118a4565b602082019050919050565b5f6020820190508181035f830152611905816118cc565b9050919050565b7f696e76616c6964207369676e6174757265206c656e67746800000000000000005f82015250565b5f611940601883611073565b915061194b8261190c565b602082019050919050565b5f6020820190508181035f83015261196d81611934565b9050919050565b7f4f6e6c792044617461204d756c65732063616e20666f7277617264206d6573735f8201527f6167657300000000000000000000000000000000000000000000000000000000602082015250565b5f6119ce602483611073565b91506119d982611974565b604082019050919050565b5f6020820190508181035f8301526119fb816119c2565b9050919050565b5f608082019050611a155f83018761130b565b611a226020830186611326565b611a2f604083018561130b565b611a3c606083018461130b565b95945050505050565b7f4e487b71000000000000000000000000000000000000000000000000000000005f52601160045260245ffd5b5f611a7c826111e7565b9150611a87836111e7565b9250828201905080821115611a9f57611a9e611a45565b5b92915050565b7f526563697069656e74206e6f74207265676973746572656400000000000000005f82015250565b5f611ad9601883611073565b9150611ae482611aa5565b602082019050919050565b5f6020820190508181035f830152611b0681611acd565b905091905056fea2646970667358221220605e1944c6bc2aaafc6f5c5a05596992736fe95bf9bfad8e1542399f0789b1b164736f6c63430008150033",
  "immutableReferences": {},
  "source": "// SPDX-License-Identifier: MIT\npragma solidity ^0.8.0;\n\ncontract TrustedDataMule {\n    struct User {\n        bool isRegistered;\n        string publicKey;\n    }\n\n    struct Recipient {\n        bool isRegistered;\n        string id_d;\n        string port;\n        string ip_address;\n    }\n\n    struct DataMule {\n        bool isRegistered;\n        uint accumulatedTokens;\n    }\n\n    mapping(address => User) public usersByAddress;\n    mapping(bytes32 => Recipient) public recipientDetails;\n    mapping(address => DataMule) public dataMules;\n\n    function registerUser(address publicAddress, string memory publicKey) public {\n        require(!usersByAddress[publicAddress].isRegistered, \"User already registered\");\n        usersByAddress[publicAddress] = User(true, publicKey);\n    }\n\n    // Funzione per registrare un destinatario con la sua chiave pubblica, ID e informazioni di contatto\n    function registerRecipient(string memory id_d, string memory port, string memory ip_address) public {\n        bytes32 id_d_bytes = keccak256(abi.encodePacked(id_d));\n        require(!recipientDetails[id_d_bytes].isRegistered, \"Recipient already registered\");\n        recipientDetails[id_d_bytes] = Recipient(true, id_d, port, ip_address);\n    }\n\n    function registerDataMule() external {\n        require(!dataMules[msg.sender].isRegistered, \"DataMule already registered\");\n        dataMules[msg.sender].isRegistered = true;\n    }\n\n\n    event SignatureVerified(address indexed signer, string publicKey);\n    event MessageSent(string indexed recipientId, string ip_address, string port, bytes32 _ethSignedMessageHash);\n\n\n    function forwardMessage(\n        bytes32 _ethSignedMessageHash,\n        bytes memory _signature\n    ) public  {\n        require(dataMules[msg.sender].isRegistered, \"Only Data Mules can forward messages\");\n        (bytes32 r, bytes32 s, uint8 v) = splitSignature(_signature);\n\n        address signer = ecrecover(_ethSignedMessageHash, v, r, s);\n\n        string memory publicKey = getPublicKeyForSigner(signer);\n        emit SignatureVerified(signer, publicKey);\n\n        if (usersByAddress[signer].isRegistered) {\n            dataMules[msg.sender].accumulatedTokens += 1;\n        }\n    }\n\n    function splitSignature(\n        bytes memory sig\n    ) public pure returns (bytes32 r, bytes32 s, uint8 v) {\n        require(sig.length == 65, \"invalid signature length\");\n\n        assembly {\n        /*\n        First 32 bytes stores the length of the signature\n\n        add(sig, 32) = pointer of sig + 32\n        effectively, skips first 32 bytes of signature\n\n        mload(p) loads next 32 bytes starting at the memory address p into memory\n        */\n\n        // first 32 bytes, after the length prefix\n            r := mload(add(sig, 32))\n        // second 32 bytes\n            s := mload(add(sig, 64))\n        // final byte (first byte of the next 32 bytes)\n            v := byte(0, mload(add(sig, 96)))\n        }\n\n        // implicitly return (r, s, v)\n    }\n\n\n    function getPublicKeyForSigner(\n        address signer\n    ) public view returns (string memory) {\n\n        require(usersByAddress[signer].isRegistered, \"Signer is not a registered user\");\n\n        return usersByAddress[signer].publicKey;\n    }\n\n    function sendMessage(bytes32 _ethSignedMessageHash, string memory recipientId) public view returns(string memory ip_address, string memory port){\n\n        bytes32 recipientId_bytes = keccak256(abi.encodePacked(recipientId));\n\n        require(recipientDetails[recipientId_bytes].isRegistered, \"Recipient not registered\");\n\n        string memory ip_address = recipientDetails[recipientId_bytes].ip_address;\n        string memory port = recipientDetails[recipientId_bytes].port;\n\n        return (ip_address, port);\n\n    }\n}\n",
  "sourcePath": "/Users/daniros/SistemiDistribuitiProject/TrustedDataMule/contracts/TrustedDataMule.sol",
  "compiler": {
    "name": "solc",
    "version": "0.8.21+commit.d9974bed.Emscripten.clang"
  },
  "schemaVersion": "3.4.16",
  "updatedAt": "2024-02-09T15:48:03.848Z",
  "networkType": "ethereum",
  "devdoc": {
    "kind": "dev",
    "methods": {},
    "version": 1
  },
  "userdoc": {
    "kind": "user",
    "methods": {},
    "version": 1
  }
}