{
  "contractName": "TrustedDataMule",
  "abi": [
    {
      "constant": true,
      "inputs": [
        {
          "name": "",
          "type": "address"
        }
      ],
      "name": "usersByAddress",
      "outputs": [
        {
          "name": "isRegistered",
          "type": "bool"
        },
        {
          "name": "publicKey",
          "type": "string"
        }
      ],
      "payable": false,
      "stateMutability": "view",
      "type": "function"
    },
    {
      "constant": true,
      "inputs": [
        {
          "name": "",
          "type": "bytes32"
        }
      ],
      "name": "recipientDetails",
      "outputs": [
        {
          "name": "isRegistered",
          "type": "bool"
        },
        {
          "name": "publicKey",
          "type": "string"
        },
        {
          "name": "id_d",
          "type": "string"
        },
        {
          "name": "port",
          "type": "string"
        },
        {
          "name": "ip_address",
          "type": "string"
        }
      ],
      "payable": false,
      "stateMutability": "view",
      "type": "function"
    },
    {
      "constant": true,
      "inputs": [
        {
          "name": "",
          "type": "address"
        }
      ],
      "name": "dataMules",
      "outputs": [
        {
          "name": "isRegistered",
          "type": "bool"
        },
        {
          "name": "accumulatedTokens",
          "type": "uint256"
        }
      ],
      "payable": false,
      "stateMutability": "view",
      "type": "function"
    },
    {
      "anonymous": false,
      "inputs": [
        {
          "indexed": true,
          "name": "signer",
          "type": "address"
        },
        {
          "indexed": false,
          "name": "publicKey",
          "type": "string"
        }
      ],
      "name": "SignatureVerified",
      "type": "event"
    },
    {
      "anonymous": false,
      "inputs": [
        {
          "indexed": true,
          "name": "recipientId",
          "type": "string"
        },
        {
          "indexed": false,
          "name": "ip_address",
          "type": "string"
        },
        {
          "indexed": false,
          "name": "port",
          "type": "string"
        },
        {
          "indexed": false,
          "name": "_ethSignedMessageHash",
          "type": "bytes32"
        }
      ],
      "name": "MessageSent",
      "type": "event"
    },
    {
      "constant": false,
      "inputs": [
        {
          "name": "publicAddress",
          "type": "address"
        },
        {
          "name": "publicKey",
          "type": "string"
        }
      ],
      "name": "registerUser",
      "outputs": [],
      "payable": false,
      "stateMutability": "nonpayable",
      "type": "function"
    },
    {
      "constant": false,
      "inputs": [
        {
          "name": "publicKey",
          "type": "string"
        },
        {
          "name": "id_d",
          "type": "string"
        },
        {
          "name": "port",
          "type": "string"
        },
        {
          "name": "ip_address",
          "type": "string"
        }
      ],
      "name": "registerRecipient",
      "outputs": [],
      "payable": false,
      "stateMutability": "nonpayable",
      "type": "function"
    },
    {
      "constant": false,
      "inputs": [],
      "name": "registerDataMule",
      "outputs": [],
      "payable": false,
      "stateMutability": "nonpayable",
      "type": "function"
    },
    {
      "constant": false,
      "inputs": [
        {
          "name": "_ethSignedMessageHash",
          "type": "bytes32"
        },
        {
          "name": "_signature",
          "type": "bytes"
        }
      ],
      "name": "forwardMessage",
      "outputs": [],
      "payable": false,
      "stateMutability": "nonpayable",
      "type": "function"
    },
    {
      "constant": true,
      "inputs": [
        {
          "name": "sig",
          "type": "bytes"
        }
      ],
      "name": "splitSignature",
      "outputs": [
        {
          "name": "r",
          "type": "bytes32"
        },
        {
          "name": "s",
          "type": "bytes32"
        },
        {
          "name": "v",
          "type": "uint8"
        }
      ],
      "payable": false,
      "stateMutability": "pure",
      "type": "function"
    },
    {
      "constant": true,
      "inputs": [
        {
          "name": "signer",
          "type": "address"
        }
      ],
      "name": "getPublicKeyForSigner",
      "outputs": [
        {
          "name": "",
          "type": "string"
        }
      ],
      "payable": false,
      "stateMutability": "view",
      "type": "function"
    },
    {
      "constant": false,
      "inputs": [
        {
          "name": "_ethSignedMessageHash",
          "type": "bytes32"
        },
        {
          "name": "recipientId",
          "type": "string"
        }
      ],
      "name": "sendMessage",
      "outputs": [],
      "payable": false,
      "stateMutability": "nonpayable",
      "type": "function"
    }
  ],
  "bytecode": "0x608060405234801561001057600080fd5b50611cbc806100206000396000f3fe60806040526004361061009e576000357c0100000000000000000000000000000000000000000000000000000000900480630ea126f9146100a35780635423cc1b1461018b578063634e7a8e146101a25780636bf693c41461042f5780636caf7534146105045780636fb0534c146105ce578063703c99d6146107d1578063a7bb580314610841578063d8c1e59d14610931578063e7df69b114610a03575b600080fd5b3480156100af57600080fd5b50610189600480360360408110156100c657600080fd5b81019080803573ffffffffffffffffffffffffffffffffffffffff1690602001909291908035906020019064010000000081111561010357600080fd5b82018360208201111561011557600080fd5b8035906020019184600183028401116401000000008311171561013757600080fd5b91908080601f016020809104026020016040519081016040528093929190818152602001838380828437600081840152601f19601f820116905080830192505050505050509192919290505050610ad5565b005b34801561019757600080fd5b506101a0610c33565b005b3480156101ae57600080fd5b5061042d600480360360808110156101c557600080fd5b81019080803590602001906401000000008111156101e257600080fd5b8201836020820111156101f457600080fd5b8035906020019184600183028401116401000000008311171561021657600080fd5b91908080601f016020809104026020016040519081016040528093929190818152602001838380828437600081840152601f19601f8201169050808301925050505050505091929192908035906020019064010000000081111561027957600080fd5b82018360208201111561028b57600080fd5b803590602001918460018302840111640100000000831117156102ad57600080fd5b91908080601f016020809104026020016040519081016040528093929190818152602001838380828437600081840152601f19601f8201169050808301925050505050505091929192908035906020019064010000000081111561031057600080fd5b82018360208201111561032257600080fd5b8035906020019184600183028401116401000000008311171561034457600080fd5b91908080601f016020809104026020016040519081016040528093929190818152602001838380828437600081840152601f19601f820116905080830192505050505050509192919290803590602001906401000000008111156103a757600080fd5b8201836020820111156103b957600080fd5b803590602001918460018302840111640100000000831117156103db57600080fd5b91908080601f016020809104026020016040519081016040528093929190818152602001838380828437600081840152601f19601f820116905080830192505050505050509192919290505050610d55565b005b34801561043b57600080fd5b5061047e6004803603602081101561045257600080fd5b81019080803573ffffffffffffffffffffffffffffffffffffffff169060200190929190505050610f42565b604051808315151515815260200180602001828103825283818151815260200191508051906020019080838360005b838110156104c85780820151818401526020810190506104ad565b50505050905090810190601f1680156104f55780820380516001836020036101000a031916815260200191505b50935050505060405180910390f35b34801561051057600080fd5b506105536004803603602081101561052757600080fd5b81019080803573ffffffffffffffffffffffffffffffffffffffff16906020019092919050505061100b565b6040518080602001828103825283818151815260200191508051906020019080838360005b83811015610593578082015181840152602081019050610578565b50505050905090810190601f1680156105c05780820380516001836020036101000a031916815260200191505b509250505060405180910390f35b3480156105da57600080fd5b50610607600480360360208110156105f157600080fd5b81019080803590602001909291905050506111b1565b604051808615151515815260200180602001806020018060200180602001858103855289818151815260200191508051906020019080838360005b8381101561065d578082015181840152602081019050610642565b50505050905090810190601f16801561068a5780820380516001836020036101000a031916815260200191505b50858103845288818151815260200191508051906020019080838360005b838110156106c35780820151818401526020810190506106a8565b50505050905090810190601f1680156106f05780820380516001836020036101000a031916815260200191505b50858103835287818151815260200191508051906020019080838360005b8381101561072957808201518184015260208101905061070e565b50505050905090810190601f1680156107565780820380516001836020036101000a031916815260200191505b50858103825286818151815260200191508051906020019080838360005b8381101561078f578082015181840152602081019050610774565b50505050905090810190601f1680156107bc5780820380516001836020036101000a031916815260200191505b50995050505050505050505060405180910390f35b3480156107dd57600080fd5b50610820600480360360208110156107f457600080fd5b81019080803573ffffffffffffffffffffffffffffffffffffffff169060200190929190505050611454565b60405180831515151581526020018281526020019250505060405180910390f35b34801561084d57600080fd5b506109076004803603602081101561086457600080fd5b810190808035906020019064010000000081111561088157600080fd5b82018360208201111561089357600080fd5b803590602001918460018302840111640100000000831117156108b557600080fd5b91908080601f016020809104026020016040519081016040528093929190818152602001838380828437600081840152601f19601f820116905080830192505050505050509192919290505050611485565b604051808481526020018381526020018260ff1660ff168152602001935050505060405180910390f35b34801561093d57600080fd5b50610a016004803603604081101561095457600080fd5b81019080803590602001909291908035906020019064010000000081111561097b57600080fd5b82018360208201111561098d57600080fd5b803590602001918460018302840111640100000000831117156109af57600080fd5b91908080601f016020809104026020016040519081016040528093929190818152602001838380828437600081840152601f19601f820116905080830192505050505050509192919290505050611522565b005b348015610a0f57600080fd5b50610ad360048036036040811015610a2657600080fd5b810190808035906020019092919080359060200190640100000000811115610a4d57600080fd5b820183602082011115610a5f57600080fd5b80359060200191846001830284011164010000000083111715610a8157600080fd5b91908080601f016020809104026020016040519081016040528093929190818152602001838380828437600081840152601f19601f8201169050808301925050505050505091929192905050506117fa565b005b6000808373ffffffffffffffffffffffffffffffffffffffff1673ffffffffffffffffffffffffffffffffffffffff16815260200190815260200160002060000160009054906101000a900460ff16151515610b99576040517f08c379a00000000000000000000000000000000000000000000000000000000081526004018080602001828103825260178152602001807f5573657220616c7265616479207265676973746572656400000000000000000081525060200191505060405180910390fd5b6040805190810160405280600115158152602001828152506000808473ffffffffffffffffffffffffffffffffffffffff1673ffffffffffffffffffffffffffffffffffffffff16815260200190815260200160002060008201518160000160006101000a81548160ff0219169083151502179055506020820151816001019080519060200190610c2b929190611beb565b509050505050565b600260003373ffffffffffffffffffffffffffffffffffffffff1673ffffffffffffffffffffffffffffffffffffffff16815260200190815260200160002060000160009054906101000a900460ff16151515610cf8576040517f08c379a000000000000000000000000000000000000000000000000000000000815260040180806020018281038252601b8152602001807f446174614d756c6520616c72656164792072656769737465726564000000000081525060200191505060405180910390fd5b6001600260003373ffffffffffffffffffffffffffffffffffffffff1673ffffffffffffffffffffffffffffffffffffffff16815260200190815260200160002060000160006101000a81548160ff021916908315150217905550565b6000836040516020018082805190602001908083835b602083101515610d905780518252602082019150602081019050602083039250610d6b565b6001836020036101000a0380198251168184511680821785525050505050509050019150506040516020818303038152906040528051906020012090506001600082815260200190815260200160002060000160009054906101000a900460ff16151515610e66576040517f08c379a000000000000000000000000000000000000000000000000000000000815260040180806020018281038252601c8152602001807f526563697069656e7420616c726561647920726567697374657265640000000081525060200191505060405180910390fd5b60a060405190810160405280600115158152602001868152602001858152602001848152602001838152506001600083815260200190815260200160002060008201518160000160006101000a81548160ff0219169083151502179055506020820151816001019080519060200190610ee0929190611beb565b506040820151816002019080519060200190610efd929190611beb565b506060820151816003019080519060200190610f1a929190611beb565b506080820151816004019080519060200190610f37929190611beb565b509050505050505050565b60006020528060005260406000206000915090508060000160009054906101000a900460ff1690806001018054600181600116156101000203166002900480601f0160208091040260200160405190810160405280929190818152602001828054600181600116156101000203166002900480156110015780601f10610fd657610100808354040283529160200191611001565b820191906000526020600020905b815481529060010190602001808311610fe457829003601f168201915b5050505050905082565b60606000808373ffffffffffffffffffffffffffffffffffffffff1673ffffffffffffffffffffffffffffffffffffffff16815260200190815260200160002060000160009054906101000a900460ff1615156110d0576040517f08c379a000000000000000000000000000000000000000000000000000000000815260040180806020018281038252601f8152602001807f5369676e6572206973206e6f742061207265676973746572656420757365720081525060200191505060405180910390fd5b6000808373ffffffffffffffffffffffffffffffffffffffff1673ffffffffffffffffffffffffffffffffffffffff1681526020019081526020016000206001018054600181600116156101000203166002900480601f0160208091040260200160405190810160405280929190818152602001828054600181600116156101000203166002900480156111a55780601f1061117a576101008083540402835291602001916111a5565b820191906000526020600020905b81548152906001019060200180831161118857829003601f168201915b50505050509050919050565b60016020528060005260406000206000915090508060000160009054906101000a900460ff1690806001018054600181600116156101000203166002900480601f0160208091040260200160405190810160405280929190818152602001828054600181600116156101000203166002900480156112705780601f1061124557610100808354040283529160200191611270565b820191906000526020600020905b81548152906001019060200180831161125357829003601f168201915b505050505090806002018054600181600116156101000203166002900480601f01602080910402602001604051908101604052809291908181526020018280546001816001161561010002031660029004801561130e5780601f106112e35761010080835404028352916020019161130e565b820191906000526020600020905b8154815290600101906020018083116112f157829003601f168201915b505050505090806003018054600181600116156101000203166002900480601f0160208091040260200160405190810160405280929190818152602001828054600181600116156101000203166002900480156113ac5780601f10611381576101008083540402835291602001916113ac565b820191906000526020600020905b81548152906001019060200180831161138f57829003601f168201915b505050505090806004018054600181600116156101000203166002900480601f01602080910402602001604051908101604052809291908181526020018280546001816001161561010002031660029004801561144a5780601f1061141f5761010080835404028352916020019161144a565b820191906000526020600020905b81548152906001019060200180831161142d57829003601f168201915b5050505050905085565b60026020528060005260406000206000915090508060000160009054906101000a900460ff16908060010154905082565b600080600060418451141515611503576040517f08c379a00000000000000000000000000000000000000000000000000000000081526004018080602001828103825260188152602001807f696e76616c6964207369676e6174757265206c656e677468000000000000000081525060200191505060405180910390fd5b6020840151925060408401519150606084015160001a90509193909250565b600260003373ffffffffffffffffffffffffffffffffffffffff1673ffffffffffffffffffffffffffffffffffffffff16815260200190815260200160002060000160009054906101000a900460ff16151561160c576040517f08c379a00000000000000000000000000000000000000000000000000000000081526004018080602001828103825260248152602001807f4f6e6c792044617461204d756c65732063616e20666f7277617264206d65737381526020017f616765730000000000000000000000000000000000000000000000000000000081525060400191505060405180910390fd5b600080600061161a84611485565b925092509250600060018683868660405160008152602001604052604051808581526020018460ff1660ff1681526020018381526020018281526020019450505050506020604051602081039080840390855afa15801561167f573d6000803e3d6000fd5b50505060206040510351905060606116968261100b565b90508173ffffffffffffffffffffffffffffffffffffffff167f0759bb2910308fa0ad6f107646284d25a51ef4c6691542b7189e18453f8689e9826040518080602001828103825283818151815260200191508051906020019080838360005b838110156117115780820151818401526020810190506116f6565b50505050905090810190601f16801561173e5780820380516001836020036101000a031916815260200191505b509250505060405180910390a26000808373ffffffffffffffffffffffffffffffffffffffff1673ffffffffffffffffffffffffffffffffffffffff16815260200190815260200160002060000160009054906101000a900460ff16156117f1576001600260003373ffffffffffffffffffffffffffffffffffffffff1673ffffffffffffffffffffffffffffffffffffffff168152602001908152602001600020600101600082825401925050819055505b50505050505050565b6000816040516020018082805190602001908083835b6020831015156118355780518252602082019150602081019050602083039250611810565b6001836020036101000a0380198251168184511680821785525050505050509050019150506040516020818303038152906040528051906020012090506001600082815260200190815260200160002060000160009054906101000a900460ff16151561190a576040517f08c379a00000000000000000000000000000000000000000000000000000000081526004018080602001828103825260188152602001807f526563697069656e74206e6f742072656769737465726564000000000000000081525060200191505060405180910390fd5b6060600160008381526020019081526020016000206004018054600181600116156101000203166002900480601f0160208091040260200160405190810160405280929190818152602001828054600181600116156101000203166002900480156119b65780601f1061198b576101008083540402835291602001916119b6565b820191906000526020600020905b81548152906001019060200180831161199957829003601f168201915b505050505090506060600160008481526020019081526020016000206003018054600181600116156101000203166002900480601f016020809104026020016040519081016040528092919081815260200182805460018160011615610100020316600290048015611a695780601f10611a3e57610100808354040283529160200191611a69565b820191906000526020600020905b815481529060010190602001808311611a4c57829003601f168201915b50505050509050836040518082805190602001908083835b602083101515611aa65780518252602082019150602081019050602083039250611a81565b6001836020036101000a03801982511681845116808217855250505050505090500191505060405180910390207f91a5e96b597bc139d348b722056fa1e4f1a33ae484aec311b1554d5a70f89829838388604051808060200180602001848152602001838103835286818151815260200191508051906020019080838360005b83811015611b41578082015181840152602081019050611b26565b50505050905090810190601f168015611b6e5780820380516001836020036101000a031916815260200191505b50838103825285818151815260200191508051906020019080838360005b83811015611ba7578082015181840152602081019050611b8c565b50505050905090810190601f168015611bd45780820380516001836020036101000a031916815260200191505b509550505050505060405180910390a25050505050565b828054600181600116156101000203166002900490600052602060002090601f016020900481019282601f10611c2c57805160ff1916838001178555611c5a565b82800160010185558215611c5a579182015b82811115611c59578251825591602001919060010190611c3e565b5b509050611c679190611c6b565b5090565b611c8d91905b80821115611c89576000816000905550600101611c71565b5090565b9056fea165627a7a723058208da042a86571fe2dfca689c6974ca73e9ed88327e601a9b640a2271f599d46390029",
  "source": "// SPDX-License-Identifier: MIT\npragma solidity >=0.4.22 <0.9.0;\n\ncontract TrustedDataMule {\n    struct User {\n        bool isRegistered;\n        string publicKey;\n    }\n\n    struct Recipient {\n        bool isRegistered;\n        string publicKey;\n        string id_d;\n        string port;\n        string ip_address;\n    }\n\n    struct DataMule {\n        bool isRegistered;\n        uint accumulatedTokens;\n    }\n\n    mapping(address => User) public usersByAddress;\n    mapping(bytes32 => Recipient) public recipientDetails;\n    mapping(address => DataMule) public dataMules;\n\n    function registerUser(address publicAddress, string memory publicKey) public {\n        require(!usersByAddress[publicAddress].isRegistered, \"User already registered\");\n        usersByAddress[publicAddress] = User(true, publicKey);\n    }\n\n    // Funzione per registrare un destinatario con la sua chiave pubblica, ID e informazioni di contatto\n    function registerRecipient(string memory publicKey, string memory id_d, string memory port, string memory ip_address) public {\n        bytes32 id_d_bytes = keccak256(abi.encodePacked(id_d));\n        require(!recipientDetails[id_d_bytes].isRegistered, \"Recipient already registered\");\n        recipientDetails[id_d_bytes] = Recipient(true, publicKey, id_d, port, ip_address);\n    }\n\n    function registerDataMule() external {\n        require(!dataMules[msg.sender].isRegistered, \"DataMule already registered\");\n        dataMules[msg.sender].isRegistered = true;\n    }\n\n\n    event SignatureVerified(address indexed signer, string publicKey);\n    event MessageSent(string indexed recipientId, string ip_address, string port, bytes32 _ethSignedMessageHash);\n\n\n    function forwardMessage(\n        bytes32 _ethSignedMessageHash,\n        bytes memory _signature\n    ) public  {\n        require(dataMules[msg.sender].isRegistered, \"Only Data Mules can forward messages\");\n        (bytes32 r, bytes32 s, uint8 v) = splitSignature(_signature);\n\n        address signer = ecrecover(_ethSignedMessageHash, v, r, s);\n\n        string memory publicKey = getPublicKeyForSigner(signer);\n        emit SignatureVerified(signer, publicKey);\n\n        if (usersByAddress[signer].isRegistered) {\n            dataMules[msg.sender].accumulatedTokens += 1;\n        }\n    }\n\n    function splitSignature(\n        bytes memory sig\n    ) public pure returns (bytes32 r, bytes32 s, uint8 v) {\n        require(sig.length == 65, \"invalid signature length\");\n\n        assembly {\n        /*\n        First 32 bytes stores the length of the signature\n\n        add(sig, 32) = pointer of sig + 32\n        effectively, skips first 32 bytes of signature\n\n        mload(p) loads next 32 bytes starting at the memory address p into memory\n        */\n\n        // first 32 bytes, after the length prefix\n            r := mload(add(sig, 32))\n        // second 32 bytes\n            s := mload(add(sig, 64))\n        // final byte (first byte of the next 32 bytes)\n            v := byte(0, mload(add(sig, 96)))\n        }\n\n        // implicitly return (r, s, v)\n    }\n\n\n    function getPublicKeyForSigner(\n        address signer\n    ) public view returns (string memory) {\n\n        require(usersByAddress[signer].isRegistered, \"Signer is not a registered user\");\n\n        return usersByAddress[signer].publicKey;\n    }\n\n    function sendMessage(bytes32 _ethSignedMessageHash, string memory recipientId) public {\n\n        bytes32 recipientId_bytes = keccak256(abi.encodePacked(recipientId));\n\n        require(recipientDetails[recipientId_bytes].isRegistered, \"Recipient not registered\");\n\n        string memory ip_address = recipientDetails[recipientId_bytes].ip_address;\n        string memory port = recipientDetails[recipientId_bytes].port;\n\n        emit MessageSent(recipientId, ip_address, port, _ethSignedMessageHash);\n\n    }\n}\n",
  "sourcePath": "/Users/daniros/SDProject/DataMuleGanache/contracts/TrustedDataMule.sol",
  "compiler": {
    "name": "solc",
    "version": "0.5.1+commit.c8a2cb62.Emscripten.clang"
  },
  "schemaVersion": "3.4.16",
  "updatedAt": "2024-02-08T14:56:25.604Z",
  "networkType": "ethereum",
  "devdoc": {
    "methods": {}
  },
  "userdoc": {
    "methods": {}
  }
}