{
  "contractName": "TrustedDataMule",
  "abi": [
    {
      "anonymous": false,
      "inputs": [
        {
          "indexed": true,
          "internalType": "string",
          "name": "recipientId",
          "type": "string"
        },
        {
          "indexed": false,
          "internalType": "string",
          "name": "ip_address",
          "type": "string"
        },
        {
          "indexed": false,
          "internalType": "string",
          "name": "port",
          "type": "string"
        },
        {
          "indexed": false,
          "internalType": "bytes32",
          "name": "_ethSignedMessageHash",
          "type": "bytes32"
        }
      ],
      "name": "MessageSent",
      "type": "event"
    },
    {
      "anonymous": false,
      "inputs": [
        {
          "indexed": true,
          "internalType": "address",
          "name": "signer",
          "type": "address"
        },
        {
          "indexed": false,
          "internalType": "string",
          "name": "publicKey",
          "type": "string"
        }
      ],
      "name": "SignatureVerified",
      "type": "event"
    },
    {
      "inputs": [
        {
          "internalType": "address",
          "name": "",
          "type": "address"
        }
      ],
      "name": "dataMules",
      "outputs": [
        {
          "internalType": "bool",
          "name": "isRegistered",
          "type": "bool"
        },
        {
          "internalType": "uint256",
          "name": "accumulatedTokens",
          "type": "uint256"
        }
      ],
      "stateMutability": "view",
      "type": "function"
    },
    {
      "inputs": [
        {
          "internalType": "bytes32",
          "name": "",
          "type": "bytes32"
        }
      ],
      "name": "recipientDetails",
      "outputs": [
        {
          "internalType": "bool",
          "name": "isRegistered",
          "type": "bool"
        },
        {
          "internalType": "string",
          "name": "id_d",
          "type": "string"
        },
        {
          "internalType": "string",
          "name": "port",
          "type": "string"
        },
        {
          "internalType": "string",
          "name": "ip_address",
          "type": "string"
        }
      ],
      "stateMutability": "view",
      "type": "function"
    },
    {
      "inputs": [
        {
          "internalType": "address",
          "name": "",
          "type": "address"
        }
      ],
      "name": "usersByAddress",
      "outputs": [
        {
          "internalType": "bool",
          "name": "isRegistered",
          "type": "bool"
        },
        {
          "internalType": "string",
          "name": "publicKey",
          "type": "string"
        }
      ],
      "stateMutability": "view",
      "type": "function"
    },
    {
      "inputs": [
        {
          "internalType": "address",
          "name": "publicAddress",
          "type": "address"
        },
        {
          "internalType": "string",
          "name": "publicKey",
          "type": "string"
        }
      ],
      "name": "registerUser",
      "outputs": [],
      "stateMutability": "nonpayable",
      "type": "function"
    },
    {
      "inputs": [
        {
          "internalType": "string",
          "name": "id_d",
          "type": "string"
        },
        {
          "internalType": "string",
          "name": "port",
          "type": "string"
        },
        {
          "internalType": "string",
          "name": "ip_address",
          "type": "string"
        }
      ],
      "name": "registerRecipient",
      "outputs": [],
      "stateMutability": "nonpayable",
      "type": "function"
    },
    {
      "inputs": [],
      "name": "registerDataMule",
      "outputs": [],
      "stateMutability": "nonpayable",
      "type": "function"
    },
    {
      "inputs": [
        {
          "internalType": "bytes32",
          "name": "_ethSignedMessageHash",
          "type": "bytes32"
        },
        {
          "internalType": "bytes",
          "name": "_signature",
          "type": "bytes"
        }
      ],
      "name": "forwardMessage",
      "outputs": [],
      "stateMutability": "nonpayable",
      "type": "function"
    },
    {
      "inputs": [
        {
          "internalType": "bytes",
          "name": "sig",
          "type": "bytes"
        }
      ],
      "name": "splitSignature",
      "outputs": [
        {
          "internalType": "bytes32",
          "name": "r",
          "type": "bytes32"
        },
        {
          "internalType": "bytes32",
          "name": "s",
          "type": "bytes32"
        },
        {
          "internalType": "uint8",
          "name": "v",
          "type": "uint8"
        }
      ],
      "stateMutability": "pure",
      "type": "function"
    },
    {
      "inputs": [
        {
          "internalType": "address",
          "name": "signer",
          "type": "address"
        }
      ],
      "name": "getPublicKeyForSigner",
      "outputs": [
        {
          "internalType": "string",
          "name": "",
          "type": "string"
        }
      ],
      "stateMutability": "view",
      "type": "function"
    },
    {
      "inputs": [
        {
          "internalType": "bytes32",
          "name": "_ethSignedMessageHash",
          "type": "bytes32"
        },
        {
          "internalType": "string",
          "name": "recipientId",
          "type": "string"
        }
      ],
      "name": "sendMessage",
      "outputs": [],
      "stateMutability": "nonpayable",
      "type": "function"
    }
  ],
  "bytecode": "0x608060405234801561000f575f80fd5b50611b818061001d5f395ff3fe608060405234801561000f575f80fd5b506004361061009c575f3560e01c80636fb0534c116100645780636fb0534c14610143578063703c99d614610176578063a7bb5803146101a7578063d8c1e59d146101d9578063e7df69b1146101f55761009c565b8063016ca209146100a05780630ea126f9146100bc5780635423cc1b146100d85780636bf693c4146100e25780636caf753414610113575b5f80fd5b6100ba60048036038101906100b59190610efc565b610211565b005b6100d660048036038101906100d19190610ffa565b610338565b005b6100e0610451565b005b6100fc60048036038101906100f79190611054565b610536565b60405161010a929190611113565b60405180910390f35b61012d60048036038101906101289190611054565b6105e7565b60405161013a9190611141565b60405180910390f35b61015d60048036038101906101589190611194565b610740565b60405161016d94939291906111bf565b60405180910390f35b610190600480360381019061018b9190611054565b61090a565b60405161019e92919061122f565b60405180910390f35b6101c160048036038101906101bc91906112f4565b610936565b6040516101d093929190611365565b60405180910390f35b6101f360048036038101906101ee919061139a565b61099b565b005b61020f600480360381019061020a91906113f4565b610b92565b005b5f836040516020016102239190611488565b60405160208183030381529060405280519060200120905060015f8281526020019081526020015f205f015f9054906101000a900460ff161561029b576040517f08c379a0000000000000000000000000000000000000000000000000000000008152600401610292906114e8565b60405180910390fd5b60405180608001604052806001151581526020018581526020018481526020018381525060015f8381526020019081526020015f205f820151815f015f6101000a81548160ff02191690831515021790555060208201518160010190816103029190611700565b5060408201518160020190816103189190611700565b50606082015181600301908161032e9190611700565b5090505050505050565b5f808373ffffffffffffffffffffffffffffffffffffffff1673ffffffffffffffffffffffffffffffffffffffff1681526020019081526020015f205f015f9054906101000a900460ff16156103c3576040517f08c379a00000000000000000000000000000000000000000000000000000000081526004016103ba90611819565b60405180910390fd5b6040518060400160405280600115158152602001828152505f808473ffffffffffffffffffffffffffffffffffffffff1673ffffffffffffffffffffffffffffffffffffffff1681526020019081526020015f205f820151815f015f6101000a81548160ff02191690831515021790555060208201518160010190816104499190611700565b509050505050565b60025f3373ffffffffffffffffffffffffffffffffffffffff1673ffffffffffffffffffffffffffffffffffffffff1681526020019081526020015f205f015f9054906101000a900460ff16156104dd576040517f08c379a00000000000000000000000000000000000000000000000000000000081526004016104d490611881565b60405180910390fd5b600160025f3373ffffffffffffffffffffffffffffffffffffffff1673ffffffffffffffffffffffffffffffffffffffff1681526020019081526020015f205f015f6101000a81548160ff021916908315150217905550565b5f602052805f5260405f205f91509050805f015f9054906101000a900460ff169080600101805461056690611533565b80601f016020809104026020016040519081016040528092919081815260200182805461059290611533565b80156105dd5780601f106105b4576101008083540402835291602001916105dd565b820191905f5260205f20905b8154815290600101906020018083116105c057829003601f168201915b5050505050905082565b60605f808373ffffffffffffffffffffffffffffffffffffffff1673ffffffffffffffffffffffffffffffffffffffff1681526020019081526020015f205f015f9054906101000a900460ff16610673576040517f08c379a000000000000000000000000000000000000000000000000000000000815260040161066a906118e9565b60405180910390fd5b5f808373ffffffffffffffffffffffffffffffffffffffff1673ffffffffffffffffffffffffffffffffffffffff1681526020019081526020015f2060010180546106bd90611533565b80601f01602080910402602001604051908101604052809291908181526020018280546106e990611533565b80156107345780601f1061070b57610100808354040283529160200191610734565b820191905f5260205f20905b81548152906001019060200180831161071757829003601f168201915b50505050509050919050565b6001602052805f5260405f205f91509050805f015f9054906101000a900460ff169080600101805461077190611533565b80601f016020809104026020016040519081016040528092919081815260200182805461079d90611533565b80156107e85780601f106107bf576101008083540402835291602001916107e8565b820191905f5260205f20905b8154815290600101906020018083116107cb57829003601f168201915b5050505050908060020180546107fd90611533565b80601f016020809104026020016040519081016040528092919081815260200182805461082990611533565b80156108745780601f1061084b57610100808354040283529160200191610874565b820191905f5260205f20905b81548152906001019060200180831161085757829003601f168201915b50505050509080600301805461088990611533565b80601f01602080910402602001604051908101604052809291908181526020018280546108b590611533565b80156109005780601f106108d757610100808354040283529160200191610900565b820191905f5260205f20905b8154815290600101906020018083116108e357829003601f168201915b5050505050905084565b6002602052805f5260405f205f91509050805f015f9054906101000a900460ff16908060010154905082565b5f805f604184511461097d576040517f08c379a000000000000000000000000000000000000000000000000000000000815260040161097490611951565b60405180910390fd5b602084015192506040840151915060608401515f1a90509193909250565b60025f3373ffffffffffffffffffffffffffffffffffffffff1673ffffffffffffffffffffffffffffffffffffffff1681526020019081526020015f205f015f9054906101000a900460ff16610a26576040517f08c379a0000000000000000000000000000000000000000000000000000000008152600401610a1d906119df565b60405180910390fd5b5f805f610a3284610936565b9250925092505f6001868386866040515f8152602001604052604051610a5b94939291906119fd565b6020604051602081039080840390855afa158015610a7b573d5f803e3d5ffd5b5050506020604051035190505f610a91826105e7565b90508173ffffffffffffffffffffffffffffffffffffffff167f0759bb2910308fa0ad6f107646284d25a51ef4c6691542b7189e18453f8689e982604051610ad99190611141565b60405180910390a25f808373ffffffffffffffffffffffffffffffffffffffff1673ffffffffffffffffffffffffffffffffffffffff1681526020019081526020015f205f015f9054906101000a900460ff1615610b8957600160025f3373ffffffffffffffffffffffffffffffffffffffff1673ffffffffffffffffffffffffffffffffffffffff1681526020019081526020015f206001015f828254610b819190611a6d565b925050819055505b50505050505050565b5f81604051602001610ba49190611488565b60405160208183030381529060405280519060200120905060015f8281526020019081526020015f205f015f9054906101000a900460ff16610c1b576040517f08c379a0000000000000000000000000000000000000000000000000000000008152600401610c1290611aea565b60405180910390fd5b5f60015f8381526020019081526020015f206003018054610c3b90611533565b80601f0160208091040260200160405190810160405280929190818152602001828054610c6790611533565b8015610cb25780601f10610c8957610100808354040283529160200191610cb2565b820191905f5260205f20905b815481529060010190602001808311610c9557829003601f168201915b505050505090505f60015f8481526020019081526020015f206002018054610cd990611533565b80601f0160208091040260200160405190810160405280929190818152602001828054610d0590611533565b8015610d505780601f10610d2757610100808354040283529160200191610d50565b820191905f5260205f20905b815481529060010190602001808311610d3357829003601f168201915b5050505050905083604051610d659190611488565b60405180910390207f91a5e96b597bc139d348b722056fa1e4f1a33ae484aec311b1554d5a70f89829838388604051610da093929190611b08565b60405180910390a25050505050565b5f604051905090565b5f80fd5b5f80fd5b5f80fd5b5f80fd5b5f601f19601f8301169050919050565b7f4e487b71000000000000000000000000000000000000000000000000000000005f52604160045260245ffd5b610e0e82610dc8565b810181811067ffffffffffffffff82111715610e2d57610e2c610dd8565b5b80604052505050565b5f610e3f610daf565b9050610e4b8282610e05565b919050565b5f67ffffffffffffffff821115610e6a57610e69610dd8565b5b610e7382610dc8565b9050602081019050919050565b828183375f83830152505050565b5f610ea0610e9b84610e50565b610e36565b905082815260208101848484011115610ebc57610ebb610dc4565b5b610ec7848285610e80565b509392505050565b5f82601f830112610ee357610ee2610dc0565b5b8135610ef3848260208601610e8e565b91505092915050565b5f805f60608486031215610f1357610f12610db8565b5b5f84013567ffffffffffffffff811115610f3057610f2f610dbc565b5b610f3c86828701610ecf565b935050602084013567ffffffffffffffff811115610f5d57610f5c610dbc565b5b610f6986828701610ecf565b925050604084013567ffffffffffffffff811115610f8a57610f89610dbc565b5b610f9686828701610ecf565b9150509250925092565b5f73ffffffffffffffffffffffffffffffffffffffff82169050919050565b5f610fc982610fa0565b9050919050565b610fd981610fbf565b8114610fe3575f80fd5b50565b5f81359050610ff481610fd0565b92915050565b5f80604083850312156110105761100f610db8565b5b5f61101d85828601610fe6565b925050602083013567ffffffffffffffff81111561103e5761103d610dbc565b5b61104a85828601610ecf565b9150509250929050565b5f6020828403121561106957611068610db8565b5b5f61107684828501610fe6565b91505092915050565b5f8115159050919050565b6110938161107f565b82525050565b5f81519050919050565b5f82825260208201905092915050565b5f5b838110156110d05780820151818401526020810190506110b5565b5f8484015250505050565b5f6110e582611099565b6110ef81856110a3565b93506110ff8185602086016110b3565b61110881610dc8565b840191505092915050565b5f6040820190506111265f83018561108a565b818103602083015261113881846110db565b90509392505050565b5f6020820190508181035f83015261115981846110db565b905092915050565b5f819050919050565b61117381611161565b811461117d575f80fd5b50565b5f8135905061118e8161116a565b92915050565b5f602082840312156111a9576111a8610db8565b5b5f6111b684828501611180565b91505092915050565b5f6080820190506111d25f83018761108a565b81810360208301526111e481866110db565b905081810360408301526111f881856110db565b9050818103606083015261120c81846110db565b905095945050505050565b5f819050919050565b61122981611217565b82525050565b5f6040820190506112425f83018561108a565b61124f6020830184611220565b9392505050565b5f67ffffffffffffffff8211156112705761126f610dd8565b5b61127982610dc8565b9050602081019050919050565b5f61129861129384611256565b610e36565b9050828152602081018484840111156112b4576112b3610dc4565b5b6112bf848285610e80565b509392505050565b5f82601f8301126112db576112da610dc0565b5b81356112eb848260208601611286565b91505092915050565b5f6020828403121561130957611308610db8565b5b5f82013567ffffffffffffffff81111561132657611325610dbc565b5b611332848285016112c7565b91505092915050565b61134481611161565b82525050565b5f60ff82169050919050565b61135f8161134a565b82525050565b5f6060820190506113785f83018661133b565b611385602083018561133b565b6113926040830184611356565b949350505050565b5f80604083850312156113b0576113af610db8565b5b5f6113bd85828601611180565b925050602083013567ffffffffffffffff8111156113de576113dd610dbc565b5b6113ea858286016112c7565b9150509250929050565b5f806040838503121561140a57611409610db8565b5b5f61141785828601611180565b925050602083013567ffffffffffffffff81111561143857611437610dbc565b5b61144485828601610ecf565b9150509250929050565b5f81905092915050565b5f61146282611099565b61146c818561144e565b935061147c8185602086016110b3565b80840191505092915050565b5f6114938284611458565b915081905092915050565b7f526563697069656e7420616c72656164792072656769737465726564000000005f82015250565b5f6114d2601c836110a3565b91506114dd8261149e565b602082019050919050565b5f6020820190508181035f8301526114ff816114c6565b9050919050565b7f4e487b71000000000000000000000000000000000000000000000000000000005f52602260045260245ffd5b5f600282049050600182168061154a57607f821691505b60208210810361155d5761155c611506565b5b50919050565b5f819050815f5260205f209050919050565b5f6020601f8301049050919050565b5f82821b905092915050565b5f600883026115bf7fffffffffffffffffffffffffffffffffffffffffffffffffffffffffffffffff82611584565b6115c98683611584565b95508019841693508086168417925050509392505050565b5f819050919050565b5f6116046115ff6115fa84611217565b6115e1565b611217565b9050919050565b5f819050919050565b61161d836115ea565b6116316116298261160b565b848454611590565b825550505050565b5f90565b611645611639565b611650818484611614565b505050565b5b81811015611673576116685f8261163d565b600181019050611656565b5050565b601f8211156116b85761168981611563565b61169284611575565b810160208510156116a1578190505b6116b56116ad85611575565b830182611655565b50505b505050565b5f82821c905092915050565b5f6116d85f19846008026116bd565b1980831691505092915050565b5f6116f083836116c9565b9150826002028217905092915050565b61170982611099565b67ffffffffffffffff81111561172257611721610dd8565b5b61172c8254611533565b611737828285611677565b5f60209050601f831160018114611768575f8415611756578287015190505b61176085826116e5565b8655506117c7565b601f19841661177686611563565b5f5b8281101561179d57848901518255600182019150602085019450602081019050611778565b868310156117ba57848901516117b6601f8916826116c9565b8355505b6001600288020188555050505b505050505050565b7f5573657220616c726561647920726567697374657265640000000000000000005f82015250565b5f6118036017836110a3565b915061180e826117cf565b602082019050919050565b5f6020820190508181035f830152611830816117f7565b9050919050565b7f446174614d756c6520616c7265616479207265676973746572656400000000005f82015250565b5f61186b601b836110a3565b915061187682611837565b602082019050919050565b5f6020820190508181035f8301526118988161185f565b9050919050565b7f5369676e6572206973206e6f74206120726567697374657265642075736572005f82015250565b5f6118d3601f836110a3565b91506118de8261189f565b602082019050919050565b5f6020820190508181035f830152611900816118c7565b9050919050565b7f696e76616c6964207369676e6174757265206c656e67746800000000000000005f82015250565b5f61193b6018836110a3565b915061194682611907565b602082019050919050565b5f6020820190508181035f8301526119688161192f565b9050919050565b7f4f6e6c792044617461204d756c65732063616e20666f7277617264206d6573735f8201527f6167657300000000000000000000000000000000000000000000000000000000602082015250565b5f6119c96024836110a3565b91506119d48261196f565b604082019050919050565b5f6020820190508181035f8301526119f6816119bd565b9050919050565b5f608082019050611a105f83018761133b565b611a1d6020830186611356565b611a2a604083018561133b565b611a37606083018461133b565b95945050505050565b7f4e487b71000000000000000000000000000000000000000000000000000000005f52601160045260245ffd5b5f611a7782611217565b9150611a8283611217565b9250828201905080821115611a9a57611a99611a40565b5b92915050565b7f526563697069656e74206e6f74207265676973746572656400000000000000005f82015250565b5f611ad46018836110a3565b9150611adf82611aa0565b602082019050919050565b5f6020820190508181035f830152611b0181611ac8565b9050919050565b5f6060820190508181035f830152611b2081866110db565b90508181036020830152611b3481856110db565b9050611b43604083018461133b565b94935050505056fea26469706673582212202867eb895542f545d74971e3aec697a8de78729cf192946916c0f6c50d87d94764736f6c63430008150033",
  "immutableReferences": {},
  "source": "// SPDX-License-Identifier: MIT\npragma solidity ^0.8.0;\n\ncontract TrustedDataMule {\n    struct User {\n        bool isRegistered;\n        string publicKey;\n    }\n\n    struct Recipient {\n        bool isRegistered;\n        string id_d;\n        string port;\n        string ip_address;\n    }\n\n    struct DataMule {\n        bool isRegistered;\n        uint accumulatedTokens;\n    }\n\n    mapping(address => User) public usersByAddress;\n    mapping(bytes32 => Recipient) public recipientDetails;\n    mapping(address => DataMule) public dataMules;\n\n    function registerUser(address publicAddress, string memory publicKey) public {\n        require(!usersByAddress[publicAddress].isRegistered, \"User already registered\");\n        usersByAddress[publicAddress] = User(true, publicKey);\n    }\n\n    // Funzione per registrare un destinatario con la sua chiave pubblica, ID e informazioni di contatto\n    function registerRecipient(string memory id_d, string memory port, string memory ip_address) public {\n        bytes32 id_d_bytes = keccak256(abi.encodePacked(id_d));\n        require(!recipientDetails[id_d_bytes].isRegistered, \"Recipient already registered\");\n        recipientDetails[id_d_bytes] = Recipient(true, id_d, port, ip_address);\n    }\n\n    function registerDataMule() external {\n        require(!dataMules[msg.sender].isRegistered, \"DataMule already registered\");\n        dataMules[msg.sender].isRegistered = true;\n    }\n\n\n    event SignatureVerified(address indexed signer, string publicKey);\n    event MessageSent(string indexed recipientId, string ip_address, string port, bytes32 _ethSignedMessageHash);\n\n\n    function forwardMessage(\n        bytes32 _ethSignedMessageHash,\n        bytes memory _signature\n    ) public  {\n        require(dataMules[msg.sender].isRegistered, \"Only Data Mules can forward messages\");\n        (bytes32 r, bytes32 s, uint8 v) = splitSignature(_signature);\n\n        address signer = ecrecover(_ethSignedMessageHash, v, r, s);\n\n        string memory publicKey = getPublicKeyForSigner(signer);\n        emit SignatureVerified(signer, publicKey);\n\n        if (usersByAddress[signer].isRegistered) {\n            dataMules[msg.sender].accumulatedTokens += 1;\n        }\n    }\n\n    function splitSignature(\n        bytes memory sig\n    ) public pure returns (bytes32 r, bytes32 s, uint8 v) {\n        require(sig.length == 65, \"invalid signature length\");\n\n        assembly {\n        /*\n        First 32 bytes stores the length of the signature\n\n        add(sig, 32) = pointer of sig + 32\n        effectively, skips first 32 bytes of signature\n\n        mload(p) loads next 32 bytes starting at the memory address p into memory\n        */\n\n        // first 32 bytes, after the length prefix\n            r := mload(add(sig, 32))\n        // second 32 bytes\n            s := mload(add(sig, 64))\n        // final byte (first byte of the next 32 bytes)\n            v := byte(0, mload(add(sig, 96)))\n        }\n\n        // implicitly return (r, s, v)\n    }\n\n\n    function getPublicKeyForSigner(\n        address signer\n    ) public view returns (string memory) {\n\n        require(usersByAddress[signer].isRegistered, \"Signer is not a registered user\");\n\n        return usersByAddress[signer].publicKey;\n    }\n\n    function sendMessage(bytes32 _ethSignedMessageHash, string memory recipientId) public {\n\n        bytes32 recipientId_bytes = keccak256(abi.encodePacked(recipientId));\n\n        require(recipientDetails[recipientId_bytes].isRegistered, \"Recipient not registered\");\n\n        string memory ip_address = recipientDetails[recipientId_bytes].ip_address;\n        string memory port = recipientDetails[recipientId_bytes].port;\n\n        emit MessageSent(recipientId, ip_address, port, _ethSignedMessageHash);\n\n    }\n}\n",
  "sourcePath": "/Users/daniros/SDProject/TrustedDataMule/contracts/TrustedDataMule.sol",
  "compiler": {
    "name": "solc",
    "version": "0.8.21+commit.d9974bed.Emscripten.clang"
  },
  "schemaVersion": "3.4.16",
  "updatedAt": "2024-02-08T20:14:25.448Z",
  "devdoc": {
    "kind": "dev",
    "methods": {},
    "version": 1
  },
  "userdoc": {
    "kind": "user",
    "methods": {},
    "version": 1
  }
}